:1000000009C016C015C014C013C012C011C010C062
:100010000FC00EC011241FBECFE9CDBF20E0A0E667
:10002000B0E001C01D92AE37B207E1F740D081C009
:10003000E7CF27B3242B27BB28B3342F30952323B6
:1000400038B3432B3FB7F894FC01680F791FE617CC
:10005000F70769F0819198E048BB000087FF28BB53
:10006000880F00C000C028BB9A95B1F7F0CF3FBF02
:1000700008959B01220F331F620F731FDADF8FEC8D
:1000800092E00197F1F700C00000089541E0F1CF40
:10009000660F771F660F771F41E0CBDF8FEC92E092
:1000A0000197F1F700C00000089541E0C2CF80E061
:1000B00090E0FC01E05AFF4F1182108212820396F9
:1000C0008E319105B1F7C0E880E090E0FC01E05A84
:1000D000FF4FC1831082128203968E319105B1F7D2
:1000E0006AE070E080E690E0D1DF2FEF85EA9EE0E5
:1000F000215080409040E1F700C0000080E090E097
:10010000FC01E05AFF4F11821082128203968E3159
:100110009105B1F76AE070E080E690E0B7DF2FEF7D
:1001200085EA9EE0215080409040E1F700C0000049
:06013000CBCFF894FFCFD5
:00000001FF
