:1000000009C021C020C01FC01EC01DC01CC01BC015
:100010001AC01AC011241FBECFE9CDBF10E0A0E660
:10002000B0E0EAECF1E002C005900D92A636B1070F
:10003000D9F720E0A6E6B0E001C01D92AF37B207C5
:10004000E1F72DD0C0C0DCCF1F920F920FB60F92F8
:1000500011242F938F939F93EF93FF9380916600CA
:10006000863098F484B125B1E0916600F0E0EE0F9F
:10007000FF1FE959FF4F90E0922B9183808380917D
:1000800066008F5F80936600369AFF91EF919F9193
:100090008F912F910F900FBE0F901F90189587B3DF
:1000A000876087BB86B1866086B986B1886886B965
:1000B00082E087B97894369AB6E0809166008630FF
:1000C000E1F7109274001092730010927600109273
:1000D0007500109278001092770010927A001092BA
:1000E000790010927C0010927B0010927E0010929A
:1000F0007D0003E710E040E0F80120813181C7E690
:10010000D0E0A0E0E990F9908A2F6B2F50D0E92F32
:10011000F0E0E05AFF4F8081082E000C990BB701E8
:1001200035D0280F391FA40F80E0C337D80751F707
:10013000F8013183208337FF04C020953095318347
:1001400020834F5F0E5F1F4F4430B1F680917300E4
:10015000909174008D32914014F0C29A01C0C298FF
:100160008091750090917600899714F0C19A01C032
:10017000C19880917700909178004F9714F0C09AC1
:1001800001C0C09810926600369A97CF0024552778
:1001900004C0080E591F880F991F009729F0769503
:1001A0006795B8F37105B9F7802D952F0895991BC0
:1001B00079E004C0991F961708F0961B881F7A955E
:0A01C000C9F780950895F894FFCF69
:0601CA000A04FBF7FC052E
:00000001FF
