:1000000012C021C020C01FC01EC01DC01CC01BC00C
:100010001AC019C018C017C016C015C014C013C02C
:1000200012C011C010C011241FBECFE5D4E0DEBF46
:10003000CDBF21E0A0E6B0E001C01D92A431B2071F
:10004000E1F744D079C0DCCF27B3242B27BB28B3FA
:10005000342F3095232338B3432B3FB7F894FC015A
:10006000680F791FE617F70789F0819198E048BB80
:10007000000000C087FF28BB880F000000C000C040
:1000800000C028BB00C09A9591F7ECCF3FBF089500
:100090009B01220F331F620F731FD6DF8FEA94E09C
:1000A0000197F1F700C00000089541E0F1CF660F1D
:1000B000771F660F771F41E0C7DF8FEA94E0019753
:1000C000F1F700C00000089541E0BECFC0E880E035
:1000D00090E0FC01E05AFF4FC18310821282039628
:1000E000843B9105B1F76CE370E080E690E0DDDFE2
:1000F0002FEF89E698E1215080409040E1F700C061
:10010000000080E090E0FC01E05AFF4F1182108275
:1001100012820396843B9105B1F76CE370E080E6B0
:1001200090E0C3DF2FEF89E698E1215080409040B6
:0C013000E1F700C00000CBCFF894FFCF37
:00000001FF
