:1000000069C06EC06DC06CC06BC06AC069C068C09A
:1000100067C066C08E0486047F04780471046A0495
:1000200064045F04590454044F044B04470443041C
:100030003F043B043804350432042F042C042A0402
:10004000270425048E0386037F03780371036A0364
:1000500064035F03590354034F034B0347034303F4
:100060003F033B033803350332032F032C032A03DA
:1000700027032503230321031F031D031B031A0367
:100080001803170316031403130312038E028602C8
:100090007F02780271026A0264025F02590254020E
:1000A0004F024B02470243023F023B023802350235
:1000B00032022F022C022A022702250223022102E9
:1000C0001F021D021B021A02180217021602140256
:1000D0001302120211241FBECFE9CDBF29D046C1A1
:1000E0008FCFCF93DF93CDB7DD27C450CDBF262F61
:1000F00090E06CE070E029D1820F911DFC01EE0FC1
:10010000FF1FEC5EFF4F85919491A0E0B0E08983E2
:100110009A83AB83BC8383B7887F9A81892B83BF03
:100120008981815086BFCC5FCDBFDF91CF9108958B
:10013000B89A8FB582608FBD8FB580648FBDD0E0D7
:10014000C0E06C2F8D2FCDDF8FEB9DE50197F1F790
:1001500000C00000CF5FCC30A1F7DF5FD83081F75F
:1001600083B7887F83BF9FE32EE785E091502040CF
:100170008040E1F700C0000067E084E0B2DF9FEB61
:1001800024ED81E0915020408040E1F700C0000064
:1001900064E084E0A6DF9FEB24ED81E091502040F5
:1001A0008040E1F700C0000064E084E09ADF9FEB4C
:1001B00024ED81E0915020408040E1F700C0000034
:1001C00065E084E08EDF9FEB24ED81E091502040DC
:1001D0008040E1F700C0000062E084E082DF9FEB36
:1001E00024ED81E0915020408040E1F700C0000004
:1001F00062E084E076DF9FEB24ED81E091502040C7
:100200008040E1F700C0000060E084E06ADF8FE535
:100210009AEE0197F1F700C0000064E084E061DF2E
:100220009FE329E181E0915020408040E1F700C048
:10023000000067E084E055DF9FE729EA83E0915002
:1002400020408040E1F700C0000083B7887F83BF73
:100250009FEF22E587E0915020408040E1F700C009
:10026000000067E084E03DDF9FEB24ED81E09150EA
:1002700020408040E1F700C0000064E084E031DF0E
:100280009FEB24ED81E0915020408040E1F700C0D9
:10029000000064E084E025DF9FEB24ED81E09150D5
:1002A00020408040E1F700C0000065E084E019DFF5
:1002B0009FEB24ED81E0915020408040E1F700C0A9
:1002C000000062E084E00DDF9FEB24ED81E09150BF
:1002D00020408040E1F700C0000062E084E001DFE0
:1002E0009FEB24ED81E0915020408040E1F700C079
:1002F000000060E084E0F5DE8FE59AEE0197F1F70B
:1003000000C0000064E084E0ECDE9FE329E181E0CE
:10031000915020408040E1F700C0000060E084E0A0
:10032000E0DE9FE729EA83E0915020408040E1F73A
:1003300000C0000083B7887F83BF9FE72FE482E17E
:10034000915020408040E1F715CF0024552704C08C
:10035000080E591F880F991F009729F07695679509
:10036000B8F37105B9F7802D952F0895F894FFCF54
:00000001FF
