:1000000009C019C018C017C016C015C014C013C04D
:1000100012C011C011241FBECFE9CDBF10E0A0E671
:10002000B0E0ECEEF0E002C005900D92AE36B10704
:10003000D9F719D059C0E4CFCF93DF939FB7F89485
:10004000C39ABB9AC39808B2E3E0C2E1DC2FDA9509
:10005000F1F780FB03F8E695879508BAB9F79FBFDB
:10006000DF91CF910895CF93DF93CDB7DD27C051B6
:10007000CDBF00E610E0F80181918F01882311F0D7
:10008000DBDFF9CF8E010F5F1F4F7801F801DF0131
:100090009FB7F894C498BC982AE180E8B499FECF41
:1000A0002150F1F723E1B49908948795C8F72A9570
:1000B000F1F79FBF81938A3049F411961C9287EB28
:1000C0009BE00197F1F700C0000006C0CF01801B44
:1000D000910B4097E4F2F1CFF70181917F018823E2
:0C00E00009F4D3CFA9DFF8CFF894FFCFCC
:0E00EC0048656C6C6F20576F726C64210A00BF
:00000001FF
