:1000000009C021C020C01FC01EC01DC01CC01BC015
:100010001AC019C011241FBECFE9CDBF10E0A0E661
:10002000B0E0EAEBF1E002C005900D92A236B10714
:10003000D9F720E0A2E6B0E001C01D92A836B207D1
:10004000E1F777D0B8C0DCCF209162003091630037
:100050002230310549F14091600050916100233018
:10006000310558F421153105C1F021303105D9F59C
:10007000BA01681B790BCB012DC02430310541F149
:10008000D0F02530310579F540916400509165003C
:10009000BA01681B790BCB0122C0409166005091D8
:1000A0006700840F951F0FC0409164005091650058
:1000B000840F951F14C04091660050916700BA01EB
:1000C000681B790BCB0190936700809366000BC08F
:1000D000840F951F909361008093600004C09093FB
:1000E000650080936400609160007091610061150B
:1000F00082E07807A0F440916600509167004115B6
:1001000082E0580760F48091640090916500672B4D
:1001100031F0452B21F001978F3F914048F0C90104
:10012000019666E070E033D09093630080936200A4
:10013000089587E087BB88BB80E090E02091600055
:10014000309161008217930710F4C09801C0C09AE3
:1001500020916600309167008217930710F4C198D0
:1001600001C0C19A20916400309165008217930705
:1001700010F4C29801C0C29A811522E0920728F0BB
:1001800081E090E061DF80E090E00196D7CFAA1B8C
:10019000BB1B51E107C0AA1FBB1FA617B70710F072
:1001A000A61BB70B881F991F5A95A9F780959095A4
:0A01B000BC01CD010895F894FFCFC3
:0201BA00000241
:00000001FF
