:1000000009C017C015C014C013C012C0DEC010C094
:100010000FC00EC011241FBECFE9CDBF20E0A0E667
:10002000B0E001C01D92AF36B207E1F703D165C160
:10003000E7CF1F920F920FB60F9211242F933F9389
:100040004F935F936F937F938F939F93AF93BF93E0
:1000500080916B0090916C0010926C0010926B007C
:1000600021E0B19920E030916600313061F030F04C
:10007000323009F491C03330D1F098C0222309F412
:1000800095C081E091C021118EC0805992408F3976
:10009000910508F088C083E08093660010926500A7
:1000A00088EE9CE190936E0080936D007FC030914C
:1000B0006500313031F138F0323009F45CC0333052
:1000C00009F456C070C0222309F46DC09C012B5462
:1000D00031402D31310570F481E08093650010923C
:1000E0006400109260001092610010926200109201
:1000F00063005CC08C5991094D9708F054C082E0B0
:1001000034C030916400303208F04DC0222309F42D
:100110004DC021E0230F2093640041E050E060E0F7
:1001200070E08A35910518F440E050E0BA0104C04F
:10013000440F551F661F771F3A95D2F780916000D4
:1001400090916100A0916200B0916300482B592BFF
:100150006A2B7B2B40936000509361006093620098
:1001600070936300203211F583E0809365001EC018
:10017000211119C0C4CF8091600090916100A091BD
:100180006200B09163008093670090936800A09331
:100190006900B0936A0007C01092660010926E006A
:1001A00010926D0003C082E080936600BF91AF9112
:1001B0009F918F917F916F915F914F913F912F917F
:1001C0000F900FBE0F901F9018951F920F920FB6B1
:1001D0000F9211242F933F938F939F9380916B00E5
:1001E00090916C009C012F5F3F4F30936C002093E7
:1001F0006B008131974210F01092660080916D0083
:1002000090916E00892B69F080916D0090916E0045
:10021000019790936E0080936D00892B11F41092DA
:1002200066009F918F913F912F910F900FBE0F907D
:100230001F90189587B38D6187BBB998C1988FB50A
:1002400082608FBD83B7816083BF89B7846089BFB7
:100250008AE786BF8BB780648BBF85B78D7F85BFEC
:1002600085B7816085BF789420E138E044E051E0B3
:100270008091670090916800A0916900B0916A0038
:10028000892B8A2B8B2BA1F3C0906700D09068003C
:10029000E0906900F0906A0080916700909168009A
:1002A000A0916900B0916A001092670010926800F6
:1002B0001092690010926A0061E0C612D9CFCD0198
:1002C000AA27BB278430A9F038F4882361F0813055
:1002D00079F688B3827E0FC0863041F0873041F6D0
:1002E00088B3842708C088B3852705C088B38327CF
:0E02F00002C088B3822788BBBBCFF894FFCF33
:00000001FF
