:100000000EC026C025C024C023C022C022C020C0EC
:100010001FC01EC03F065B4F666D7D077F6F1124BA
:100020001FBECFE9CDBF10E0A0E6B0E0E0E2F3E014
:1000300002C005900D92A236B107D9F720E0A2E6E2
:10004000B0E001C01D92A736B207E1F7E3D066C168
:10005000D7CF1F920F920FB60F9211248F938091DA
:10006000650083FF2CC0809166008F5F80936600DF
:1000700080916600863221F481E0809362001AC08C
:10008000809166008B34D9F4109262001092660061
:10009000809164008F5F809364008C3359F41092D8
:1000A0006400809163008F5F80936300843611F455
:1000B00010926300809165008260809365008F914B
:1000C0000F900FBE0F901F901895C09AC19A82E0B2
:1000D0008A95F1F7C0980895C19882E08A95F1F762
:1000E000C09882E08A95F1F7C19A82E08A95F1F78B
:1000F000C09A089598E0C19822E02A95F1F780FF10
:1001000002C0C09A01C0C098C19A22E02A95F1F7B6
:100110008695915081F7C198B898C09A82E08A95E7
:10012000F1F781E0B09902C080E002C0B89AC098AF
:1001300092E09A95F1F7C19A22E02A95F1F7C198D9
:1001400092E09A95F1F7B89A0895CF93811102C081
:10015000C0E001C0C8E0683008F067E0C62BC0937B
:100160006100B3DF8C2F8068C5DFCF91B5CF97B327
:10017000936097BB98B39C7F98BBE7CF6091610079
:100180006770E3CF682F6770809161008870DDCF62
:100190001F93CF93DF931F92CDB7DD27182F69836D
:1001A00094DF84E4A7DF98DF90DF812F8370806C79
:1001B000A1DF6981862F9EDF0F90DF91CF911F9184
:1001C0008BCF6A3030F4E62FF0E0EC5EFF4F6491A5
:1001D00001C060E0813031F4909160009078692B2B
:1001E00060936000D5CF90916000882311F09068F3
:1001F00001C09F77909360006091600081E0C8CF5C
:10020000CF93C0E060E08C2FC3DFCF5FC430D1F765
:10021000CF910895CF93DF931F92CDB7DD2764E090
:1002200081E0A5DFBA98C29A8FB582608FBD83B78F
:10023000836083BF89EF86BF89B7846089BF1092CE
:100240006300109264001092660082E18093650062
:1002500081E080936200789488E0F82ECC24C394E7
:1002600092E1E92E26E0D22E3AE0B32EB29923C0D5
:1002700087EB9BE00197F1F700C00000B29BFECF37
:100280008091650083FF05C0C0926200D092650036
:1002900012C08091650082FF09C010926400109224
:1002A0006300C0926200E092650005C08091650025
:1002B00084FDF09265008091650081FFD7CF109199
:1002C000620000916400809163006B2D1BD0682F49
:1002D00080E0998376DF9981692F81E072DF802F3A
:1002E0006B2D10D0682F82E099836BDF9981692F85
:1002F00083E067DF812F77DF809165008D7F8093BA
:100300006500B4CF991B79E004C0991F961708F0D7
:10031000961B881F7A95C9F780950895F894FFCFAA
:02032000FF0FCD
:00000001FF
