:1000000010C015C014C013C012C011C010C00FC062
:100010000EC00DC027C028C02BC02DC031C034C0B9
:1000200035C011241FBECFE9CDBF02D046C0E8CFF6
:1000300087B38F6087BB88B3807F88BB80E08F5F8A
:10004000877090E0482F50E04150510920E230E0A5
:100050004730510520F4FA01E65FFF4F0994C09A3A
:10006000C19804C0C09A01C0C098C19AC29806C085
:10007000C098C19A02C0C098C198C29AC3980AC0D9
:10008000C098C198C29A05C0C09801C0C09AC198D2
:10009000C298C39A66E06A95F1F700C0C098C1980B
:1000A000C298C39866E06A95F1F700C02150310903
:0E00B00079F69F5F9F3F51F6C2CFF894FFCFC5
:00000001FF
