:1000000009C016C015C015C013C012C011C010C061
:100010000FC00EC011241FBECFE9CDBF20E0A0E667
:10002000B0E001C01D92A636B207E1F75FD0B5C0BF
:10003000E7CF1F920F920FB60F9211242F933F9389
:100040008F939F938091640080FF11C08091630023
:1000500090916500981758F43091610028B381E0C1
:1000600090E001C0880F3A95EAF7822B0DC03091DD
:10007000610028B381E090E002C0880F991F3A9593
:10008000E2F780959095822388BB8091640081FF80
:1000900011C08091620090916500981758F43091DA
:1000A000600028B381E090E001C0880F3A95EAF73C
:1000B000822B0DC03091600028B381E090E002C037
:1000C000880F991F3A95E2F780959095822388BB17
:1000D000809165008F5F809365009F918F913F9124
:1000E0002F910F900FBE0F901F90189587B38F60C0
:1000F00087BB88B3807F88BB81E083BF89B782607C
:1001000089BF80E880936300809362001092610051
:1001100082E080936000789481E041E020E83FEF46
:10012000982F942729F0309363003093620004C025
:1001300020936300209362008093610080916400AB
:100140008D7F80936400809164008160809364005F
:100150005FEF6BE48DE1515060408040E1F700C0FB
:100160000000913011F083E001C082E080936000D4
:10017000809164008E7F809364008091640082602F
:10018000809364005FEF6BE48DE1515060408040EC
:0E019000E1F700C00000892FC3CFF894FFCF25
:00000001FF
