:1000000011C029C028C027C026C025C024C023C0D5
:1000100022C021C03F000000000080004750494F2F
:100020000000510011241FBECFE9CDBF10E0A0E6B3
:10003000B0E0E6E8F2E002C005900D92A637B10705
:10004000D9F720E0A6E7B0E001C01D92AF38B207B3
:10005000E1F78ED016C1D4CFFC018E2F2F2F9191B6
:10006000911105C0E82FF22F80E090E004C090537A
:100070009A3098F7F7CF219130ED320F3A3080F473
:10008000AC01440F551F63E0880F991F6A95E1F793
:10009000840F951FC097820F911D27FD9A95EBCF76
:1000A0000895CF93DF938091790090917A00D4DF07
:1000B000C1E0D0E001C0CC0F8A95EAF780917B00C7
:1000C00090917C00C9DF892B19F087B38C2B04C079
:1000D00087B39C2F9095892387BB80917D00909159
:1000E0007E00BADF892B19F088B3C82B03C088B310
:1000F000C095C823C8BB80E690E0DF91CF912DC0AA
:1001000084E690E02AC09FB7F894C498BC982AE18E
:1001100080E8B499FECF2150F1F723E1B499089417
:100120008795C8F72A95F1F79FBF0895CF93DF937E
:100130009FB7F894C39ABB9AC39808B2E3E0C2E1B0
:10014000DC2FDA95F1F780FB03F8E695879508BA7E
:10015000B9F79FBFDF91CF910895CF93DF93EC0163
:100160008991882311F0E2DFFBCFDF91CF910895D1
:10017000CF93DF93CDB7DD27C650CDBF4FE7E42E39
:1001800040E0F42E3FE7C32E30E0D32E560110E0BE
:10019000BADF8A3041F4E12FF0E0E158FF4F1082DE
:1001A000112381F308C08D30B1F31F5FF5018193F6
:1001B0005F01103169F7F0927800E092770081E0FA
:1001C000F60191916F01911109C08093760094E13D
:1001D000C92E90E0D92E00E010E011C08430A8F7BD
:1001E000903271F7F60131971082E82FF0E0EE0FB0
:1001F000FF1FE958FF4FD182C0828F5FE1CF46E0F9
:1002000050E0B601CE01019633D0A0917700B091B5
:1002100078009E012F5F3F4FF9018D91882329F0CF
:100220002F5F3F4F90818917B9F3908189130DC0DB
:1002300083E0000F111F8A95E1F7065E1F4FF8015A
:1002400085919491FC0109959DCF0F5F1F4FF8E0B8
:10025000CF0ED11C0031110591F68CE690E07DDFC8
:10026000809177009091780078DF8AE05FDF8ACF15
:10027000FB01DC0102C005900D9241505040D8F7BF
:060280000895F894FFCF81
:100286004F4B0A002E2E68656C700A00556E6B6E19
:060296006F776E3A2000B4
:00000001FF
