:1000000009C016C015C014C013C012C011C010C062
:100010000FC00EC011241FBECFE9CDBF20E0A0E667
:10002000B0E001C01D92A537B207E1F740D071C022
:10003000E7CF27B3242B27BB28B3342F30952323B6
:1000400038B3432B3FB7F894FC01680F791FE617CC
:10005000F70769F0819198E048BB000087FF28BB53
:10006000880F00C000C028BB9A95B1F7F0CF3FBF02
:1000700008959B01220F331F620F731FDADF8FEC8D
:1000800092E00197F1F700C00000089541E0F1CF40
:10009000660F771F660F771F41E0CBDF8FEC92E092
:1000A0000197F1F700C00000089541E0C2CF10E0D1
:1000B000C0E0DFEFCC2341F1111109C0C150DF5F77
:1000C00059F0C11109C0D1501F5FC0E029F0D11112
:1000D00003C0CF5F1150D0E080E090E0FC01E05A17
:1000E000FF4FD083C1831283039685319105B1F709
:1000F00067E070E080E690E0C9DF8FEB9DE5019757
:10010000F1F700C00000D6CFD111DDCF112321F3CC
:06011000E0CFF894FFCFE0
:00000001FF
