:1000000012C041C020C056C01EC01DC01CC01BC0B5
:100010001AC019C018C017C016C015C014C013C02C
:1000200012C011C010C011241FBECFE5D4E0DEBF46
:10003000CDBF20E0A0E6B0E001C01D92AC36B20713
:10004000E1F71DD13AC3DCCF8A98929A85B78360D5
:1000500085BF8BB780648BBF89B7806889BF85B542
:10006000886085BD85B5866085BD8CE783BD14BC81
:1000700078940895609160007091610080916200B1
:100080009091630008951F920F920FB60F92112462
:100090008F939F938091690090916A00019690934D
:1000A0006A00809369009F918F910F900FBE0F900F
:1000B0001F9018951F920F920FB60F9211242F9335
:1000C0003F934F935F936F937F938F939F93AF93E0
:1000D000BF93EF93FF9380916B008F5F80936B00D2
:1000E000823308F44FC02FB7F894409169005091C3
:1000F0006A008091650090916600A0916700B091C0
:100100006800840F951FA11DB11D80936500909319
:100110006600A0936700B093680010926A00109286
:1001200069002FBF809164008F5F809364008A30E4
:1001300039F560916500709166008091670090913B
:10014000680081D120E030E040E251E4E8D020E0D6
:1001500030E040E251E405D267D249D160936000BB
:10016000709361008093620090936300109264002A
:10017000109265001092660010926700109268005D
:1001800010926B00FF91EF91BF91AF919F918F9172
:100190007F916F915F914F913F912F910F900FBE83
:1001A0000F901F9018959C0140E050E060E079E0CE
:1001B0008DE390E098D0CA01B901615071098109BD
:1001C000910922E030E040E050E08DD0899A832F01
:1001D000992780BD29B982E08BB988E08AB986E881
:1001E00080BD08955D9BFECF8CB90895CF93DF93BA
:1001F000EC018991882311F0F5DFFBCFDF91CF91DE
:1002000008958F929F92AF92BF92EF92FF920F93B9
:100210001F93CF93DF93CDB7DEB72B970FB6F8942C
:10022000DEBF0FBECDBF1B868E01065F1F4F2AE0CB
:10023000822E912CA12CB12C7801A501940131D0F2
:10024000605DF8016083B901CA01015011096115AF
:1002500071058105910581F7C701C8DF2B960FB69F
:10026000F894DEBF0FBECDBFDF91CF911F910F91EC
:10027000FF90EF90BF90AF909F908F90089580E097
:100280009BE491DFE1DEF6DEBCDF8AE0ABDF2FEF3F
:1002900083ED90E3215080409040E1F700C00000E2
:1002A000F2CFA1E21A2EAA1BBB1BFD010DC0AA1F93
:1002B000BB1FEE1FFF1FA217B307E407F50720F0CF
:1002C000A21BB30BE40BF50B661F771F881F991F4A
:1002D0001A9469F760957095809590959B01AC0193
:1002E000BD01CF010895052E97FB16F400940FD0A1
:1002F00057FD05D0D6DF07FC02D046F408C0509564
:100300004095309521953F4F4F4F5F4F0895909501
:100310008095709561957F4F8F4F9F4F08950CD0BA
:10032000E6C0DED040F0D5D030F021F45F3F19F0C8
:10033000C7C0511110C1CAC0EBD098F39923C9F3BB
:100340005523B1F3951B550BBB27AA2762177307DB
:10035000840738F09F5F5F4F220F331F441FAA1F8F
:10036000A9F333D00E2E3AF0E0E830D0915050404F
:10037000E695001CCAF729D0FE2F27D0660F771FFD
:10038000881FBB1F261737074807AB07B0E809F0DF
:10039000BB0B802DBF01FF2793585F4F2AF09E3F74
:1003A000510568F08DC0D7C05F3FECF3983EDCF399
:1003B000869577956795B795F7959F5FC9F7880FED
:1003C000911D9695879597F90895E1E0660F771F3F
:1003D000881FBB1F621773078407BA0720F0621BD0
:1003E000730B840BBA0BEE1F88F7E095089598D035
:1003F00088F09F5790F0B92F9927B751A0F0D1F00E
:10040000660F771F881F991F1AF0BA95C9F712C097
:10041000B13081F09FD0B1E008959CC0672F782F54
:100420008827B85F39F0B93FCCF386957795679503
:10043000B395D9F73EF490958095709561957F4F6F
:100440008F4F9F4F0895E89409C097FB3EF4909515
:100450008095709561957F4F8F4F9F4F9923A9F09D
:10046000F92F96E9BB279395F6958795779567952C
:10047000B795F111F8CFFAF4BB0F11F460FF1BC070
:100480006F5F7F4F8F4F9F4F16C0882311F096E903
:1004900011C0772321F09EE8872F762F05C06623B1
:1004A00071F096E8862F70E060E02AF09A95660F6A
:1004B000771F881FDAF7880F9695879597F9089523
:1004C00097F99F6780E870E060E008959FEF80EC07
:1004D000089500240A9416161706180609060895AA
:1004E00000240A9412161306140605060895092E10
:1004F0000394000C11F4882352F0BB0F40F4BF2B7F
:1005000011F460FF04C06F5F7F4F8F4F9F4F0895BE
:1005100057FD9058440F551F59F05F3F71F04795B4
:10052000880F97FB991F61F09F3F79F08795089599
:10053000121613061406551FF2CF4695F1DF08C0B8
:10054000161617061806991FF1CF869571056105D5
:1005500008940895E894BB2766277727CB0197F97D
:1005600008950BD0C4CFB5DF28F0BADF18F095237B
:1005700009F0A6CFABCF1124EECFCADFA0F3959F31
:10058000D1F3950F50E0551F629FF001729FBB277A
:10059000F00DB11D639FAA27F00DB11DAA1F649F26
:1005A0006627B00DA11D661F829F2227B00DA11DD9
:1005B000621F739FB00DA11D621F839FA00D611D5F
:1005C000221F749F3327A00D611D231F849F600D80
:1005D000211D822F762F6A2F11249F5750408AF0B9
:1005E000E1F088234AF0EE0FFF1FBB1F661F771F45
:1005F000881F91505040A9F79E3F510570F060CF81
:10060000AACF5F3FECF3983EDCF38695779567952C
:10061000B795F795E7959F5FC1F7FE2B880F911D62
:100620009695879597F908957BDFE0F09E37D8F08F
:100630009639B8F49E3848F4672F782F8827985F4A
:10064000F9CF86957795679593959539D0F3B62F21
:10065000B1706B0F711D811D20F48795779567959B
:10066000939502C01CC077CF882371F4772321F0C3
:100670009850872B762F07C0662311F499270DC059
:100680009051862B70E060E02AF09A95660F771FF4
:10069000881FDAF7880F9695879597F908959F3FF9
:1006A00031F0915020F4879577956795B795880F2D
:0E06B000911D9695879597F90895F894FFCFC0
:00000001FF
