:1000000009C019C018C017C016C015C014C013C04D
:1000100012C011C011241FBECFE9CDBF10E0A0E671
:10002000B0E0E8EBF2E002C005900D92A636B10711
:10003000D9F74DD03FC1E4CF8FEF0895CF93DF9331
:100040009FB7F894C39ABB9AC39808B2E3E0C2E1A1
:10005000DC2FDA95F1F780FB03F8E695879508BA6F
:10006000B9F79FBFDF91CF910895CF93DF93EC0154
:100070008991882311F0E2DFFBCFDF91CF910895C2
:100080000F931F93CF93DF93CDB7DD27C850CDBF1C
:10009000FE01319628E0DF011D922A95E9F7369698
:1000A0000AE010E04E2F3F2FB80165D020E3280F63
:1000B0002083CB0131970097A9F7842F932FD5DFA9
:1000C000C85FCDBFDF91CF911F910F910895BC986C
:1000D00012E0CAE0D0E017B93E98379A369A3699BE
:1000E000FECF64B185B170E0782B072E000C880B31
:1000F000990B28EE33E040E050E066D049015A0108
:10010000D501C4012AE0B695A795979587952A95BC
:10011000D1F765E070E01ED07C01BE0140D06B01DC
:1001200080E690E0A2DFC601ABDF8EE287DFC6018A
:1001300066EF7FEF0FD08E0D9F1DA2DF8AE07EDF7E
:100140002FE789EA93E0215080409040E1F700C01A
:100150000000C1CF0024552704C0080E591F880F86
:10016000991F009729F076956795B8F37105B9F74F
:10017000802D952F0895AA1BBB1B51E107C0AA1F14
:10018000BB1FA617B70710F0A61BB70B881F991F38
:100190005A95A9F780959095BC01CD01089597FBDC
:1001A000072E16F4009406D077FD08D0E4DF07FC94
:1001B00005D03EF4909581959F4F08957095619577
:1001C0007F4F089568940013E894A0E0B0E0EAEE51
:1001D000F0E01DC0EFEFE7F959016A015E23550F0A
:1001E000EE08FE2C87019B01AC019E23990F660B44
:1001F000762FCB0131D0CDB7DD27EAE01FC02F929B
:100200003F924F925F926F927F928F929F92AF92A6
:10021000BF92CF92DF92EF92FF920F931F93CF93F3
:10022000DF93CDB7CA1BCDBFDD2709942A88398853
:1002300048885F846E847D848C849B84AA84B9847E
:10024000C884DF80EE80FD800C811B81AA81D9816A
:10025000CE0FCDBFCA2F0895DF93CF939F92A0E416
:100260009A2E0024D001E001F00116950795F7942D
:10027000E794D794C794B794A79448F41068A20F52
:10028000B31FC41FD51FE61FF71F081E191E220F1C
:10029000331F441F551F661F771F881F991F9A948D
:1002A00021F79D01AE01BF01C00111249F90CF91A4
:0802B000DF910895F894FFCFDF
:0602B80074656D703D004D
:00000001FF
