:1000000009C021C020C01FC01EC01DC01CC01BC015
:100010001AC019C011241FBECFE9CDBF10E0A0E661
:10002000B0E0E6EEF1E002C005900D92A236B10715
:10003000D9F720E0A2E6B0E001C01D92AA36B207CF
:10004000E1F797D0CEC0DCCF000098E0C198000067
:1000500087FF02C0C09A01C0C098C19A880F915012
:10006000A9F70895CF93DF931F92CDB7DD27C29AEA
:100070006983EADF6981862FE7DFC2980000C29AB0
:100080000F90DF91CF91089587B3876087BB60E0C1
:1000900089E0E8DF67E08BE0E5DF6FE08AE0E2DF40
:1000A00060E08FE0DFDF61E08CE0DCCF8830E0F4FF
:1000B0006830D0F421E030E001C0220F6A95EAF701
:1000C000682F70E0FB01EE59FF4F442319F0908137
:1000D000292B03C02095908129232083FB01EE5911
:1000E000FF4F60818F5FBECF0895883038F4E82FCE
:1000F000F0E0EE59FF4F60838F5FB4CF0895FF9219
:100100000F931F93CF93DF938830A0F4F82EC0E0B5
:10011000D0E0062F10E0A8018C2F0C2E02C05595C0
:1001200047950A94E2F741706F2DC0DF2196C830E1
:10013000D10589F7DF91CF911F910F91FF9008951D
:10014000803118F4682F8AE08DCF08950F931F93A4
:10015000CF9302E610E0C0E0F80111928F01CF5F6B
:1001600060E08C2F7FDFC830B9F7CF911F910F91DE
:1001700008958ADF88E0E4DFC1E04091600050919B
:100180006100FA01E170FF27F195E195F109EE2791
:10019000F47B569547959F0124273527D20F8D2F45
:1001A0008770A90141705527519541955109442700
:1001B000547B36952795242735273093610020936B
:1001C0006000280FD22FD7704C2F41706D2F6EDF3B
:1001D0008BED95E00197F1F700C00000CF5FC17093
:0601E000CCCFF894FFCF24
:0201E600A10076
:00000001FF
