:1000000009C019C018C017C016C015C014C013C04D
:1000100012C011C011241FBECFE9CDBF10E0A0E671
:10002000B0E0E2E8F0E002C005900D92A236B10720
:10003000D9F702D024C0E4CF81E087BB18BA209161
:10004000600030916100C901817099279195819577
:1000500091098827947B369527958227932790933B
:1000600061008093600080FF02C0C09A01C0C09808
:100070008FEF9AE40197F1F700C00000E0CFF89409
:02008000FFCFB0
:020082005B0021
:00000001FF
