:100000000C942A000C9434000C9434000C943400AA
:100010000C9434000C9434000C9434000C94340090
:100020000C9434000C9434000C9434000C94340080
:100030000C9434000C9434000C9434000C94340070
:100040000C9434000C9434000C9434000C94340060
:100050000C94340011241FBECFE5D8E0DEBFCDBF25
:100060000E9436000C9447000C94000081E087BB8E
:1000700018BA91E088B3892788BB2FEF39E688E169
:10008000215030408040E1F700C00000F3CFF894E9
:02009000FFCFA0
:00000001FF
