:100000000EC01BC01AC019C018C017C016C015C03A
:1000100014C014C07E306D79335B5F707F7B112418
:100020001FBECFE9CDBF20E0A0E6B0E001C01D9229
:10003000AD36B207E1F7ECD06FC1E2CF1F920F925D
:100040000FB60F9211242F934F935F936F937F936B
:100050008F939F93AF93BF9380916000803410F58E
:1000600084B125B190E0922B092E000CAA0BBB0B9A
:100070004091610050916200609163007091640052
:10008000840F951FA61FB71F809361009093620095
:10009000A0936300B0936400809160008F5F8093B1
:1000A0006000369ABF91AF919F918F917F916F9130
:1000B0005F914F912F910F900FBE0F901F90189549
:1000C000000098E0C198000087FF02C0C09A01C0FC
:1000D000C098C19A880F9150A9F70895CF93DF93E4
:1000E0001F92CDB7DD27C29A6983EADF6981862F27
:1000F000E7DFC2980000C29A0F90DF91CF91089578
:1001000087B3876087BB60E089E0E8DF67E08BE06A
:10011000E5DF6FE08AE0E2DF60E08FE0DFDF61E0F3
:100120008CE0DCCF883088F46A3078F4A82FB0E017
:10013000E62FF0E0EC5EFF4FE491AB59BF4F6C91BE
:1001400060786E2B6C938F5FC9CF0895883048F428
:10015000E82FF0E0EB59FF4F6081606860838F5FAC
:10016000BDCF0895883048F4E82FF0E0EB59FF4FF9
:1001700060816F7760838F5FB1CF0895EF92FF92B8
:100180000F931F93CF93DF931F92CDB7DD2720E00E
:100190003AE0E32EF12C009781F0283071F011E065
:1001A000120FB70183D0062F682F822F7983BADF11
:1001B000802F7981972F212FEECF0F90DF91CF9154
:1001C0001F910F91FF90EF900895803118F4682FE0
:1001D0008AE084CF08950F931F93CF93DF93D82F96
:1001E00005E610E0C1E0F80181918F01811102C0A4
:1001F000DD2331F0F8013197108260E08C2F6EDF43
:10020000CF5FC93081F7DF91CF911F910F91089592
:10021000BC98C49886B1876086B986B1886886B96B
:1002200082E087B96DDF81E0D6DF7894369A8091DD
:1002300060008034E0F32091600030E040E050E066
:100240006091610070916200809163009091640000
:1002500041D0C90164E670E018D0C92FC695C69593
:10026000109261001092620010926300109264007C
:100270001092600080E0AFDF8C2F90E065E570E0C9
:1002800004D07CDF82E062DFD1CF0024552704C098
:10029000080E591F880F991F009729F076956795CA
:1002A000B8F37105B9F7802D952F0895AA1BBB1BD4
:1002B00051E107C0AA1FBB1FA617B70710F0A61B66
:1002C000B70B881F991F5A95A9F780959095BC0187
:1002D000CD010895A1E21A2EAA1BBB1BFD010DC082
:1002E000AA1FBB1FEE1FFF1FA217B307E407F507E6
:1002F00020F0A21BB30BE40BF50B661F771F881FC2
:10030000991F1A9469F760957095809590959B0157
:0C031000AC01BD01CF010895F894FFCFAF
:00000001FF
