:1000000009C021C020C01FC01EC01DC01CC01BC015
:100010001AC01AC011241FBECFE9CDBF10E0A0E660
:10002000B0E0E2E2F2E002C005900D92A836B1071E
:10003000D9F720E0A8E6B0E001C01D92A637B207CC
:10004000E1F723D0ECC0DCCF1F920F920FB60F92D6
:1000500011248F93EF93FF9380916800873068F4A9
:10006000E091680081E08E0F8093680085B1F0E038
:10007000E159FF4F80588083369AFF91EF918F911D
:100080000F900FBE0F901F901895CF93DF93CDB7B1
:10009000DD27CC51CDBF87B3876087BB86B1856034
:1000A00086B986B1886886B982E087B93D9A789426
:1000B000369A6E012DE1C20ED11C47E0642E8FE608
:1000C00090E057E0752E780E809168008730E1F758
:1000D0008E01015F1F4FCE0101961C01D8011D92B8
:1000E0001D92FC0111921192CF01AC15BD05B9F71B
:1000F00039E6E32E30E0F32E40E0D801ED91FC919B
:10010000D1012D913C918FE6882E80E0982E512CC4
:10011000D401AD904D010A2C000CBB08852D662D35
:1001200072D0892F90E0805A9F4FDC018C91082E6D
:10013000000C990BB50156D0E80FF91F85E0850D2D
:10014000662D61D0692F70E0605A7F4FDB018C9182
:10015000082E000C990BB50145D0281B390B540E05
:100160007810D6CFD801ED93FD938D01D1012D9359
:100170003D931D01CF01BF0135D0FC01C901B9017B
:1001800031D08E0F9F1F24E0959587952A95E1F732
:10019000F701819391937F014F5F433009F0ADCF19
:1001A0008091690090916A0081389B4B10F0C09A51
:1001B00001C0C09880916B0090916C0081389105CE
:1001C00010F0C19A01C0C19880916D0090916E00AD
:1001D0008134910510F0C29A01C0C2981092680053
:1001E000369A72CF0024552704C0080E591F880F75
:1001F000991F009729F076956795B8F37105B9F7BF
:10020000802D952F0895991B79E004C0991F9617AA
:1002100008F0961B881F7A95C9F780950895F89481
:02022000FFCF0E
:080222000A06FEF7F7FE0600D4
:00000001FF
