:1000000009C016C015C014C013C012C012C010C061
:100010000FC00EC011241FBECFE9CDBF20E0A0E667
:10002000B0E001C01D92A236B207E1F72DD076C034
:10003000E7CF1F920F920FB60F9211248F939F93C9
:10004000809161008823C9F0809161008436A8F412
:1000500080916000811102C0C09A05C0909161003A
:10006000891301C0C098809160008F5F843619F0B9
:100070008093600002C0109260009F918F910F905A
:100080000FBE0F901F901895B89A88B3866088BBF2
:100090008FB582608FBD83B7816083BF8FE586BFD8
:1000A00089B7846089BF78942FEF8DEE92E021505C
:1000B00080409040E1F700C00000B19902C082E0AA
:1000C00001C080E0B29902C0846002C0882309F1B7
:1000D00081FF09C090916100943628F490916100ED
:1000E0009F5F9093610082FF09C080916100882327
:1000F00029F08091610081508093610080916100BE
:10010000811102C0C09805C080916100843609F455
:10011000C09A8FEF9AE40197F1F7CDCFF894FFCF13
:00000001FF
